{
  "address": "0x5FbDB2315678afecb367f032d93F642f64180aa3",
  "abi": [
    {
      "inputs": [
        {
          "internalType": "uint256",
          "name": "_fluencyRate",
          "type": "uint256"
        },
        {
          "internalType": "string",
          "name": "_name",
          "type": "string"
        },
        {
          "internalType": "string",
          "name": "_schoolIndex",
          "type": "string"
        },
        {
          "internalType": "address",
          "name": "_wallet",
          "type": "address"
        }
      ],
      "name": "addStudent",
      "outputs": [],
      "stateMutability": "nonpayable",
      "type": "function"
    },
    {
      "inputs": [
        {
          "internalType": "uint256",
          "name": "",
          "type": "uint256"
        }
      ],
      "name": "allStudents",
      "outputs": [
        {
          "internalType": "uint256",
          "name": "fluencyRate",
          "type": "uint256"
        },
        {
          "internalType": "string",
          "name": "name",
          "type": "string"
        },
        {
          "internalType": "string",
          "name": "schoolIndex",
          "type": "string"
        },
        {
          "internalType": "address",
          "name": "wallet",
          "type": "address"
        }
      ],
      "stateMutability": "view",
      "type": "function"
    },
    {
      "inputs": [],
      "name": "getDecimals",
      "outputs": [
        {
          "internalType": "uint256",
          "name": "",
          "type": "uint256"
        }
      ],
      "stateMutability": "pure",
      "type": "function"
    },
    {
      "inputs": [
        {
          "internalType": "address",
          "name": "",
          "type": "address"
        }
      ],
      "name": "idToFluency",
      "outputs": [
        {
          "internalType": "uint256",
          "name": "",
          "type": "uint256"
        }
      ],
      "stateMutability": "view",
      "type": "function"
    }
  ],
  "transactionHash": "0x08c335722fc4fc4ca2b49868a82b912ab2473987b7008790488dae9bc1dd5488",
  "args": [],
  "numDeployments": 1,
  "solcInputHash": "9b54a7affc7c62e56cd34299069adf25",
  "bytecode": "0x608060405234801561001057600080fd5b50610af9806100206000396000f3fe608060405234801561001057600080fd5b506004361061004c5760003560e01c80633665af9614610051578063913188ea1461006d578063e6a852cc1461009d578063f0141d84146100d0575b600080fd5b61006b600480360381019061006691906105e1565b6100ee565b005b61008760048036038101906100829190610680565b610262565b60405161009491906106bc565b60405180910390f35b6100b760048036038101906100b291906106d7565b61027a565b6040516100c79493929190610792565b60405180910390f35b6100d86103ea565b6040516100e591906106bc565b60405180910390f35b600080549050600260008373ffffffffffffffffffffffffffffffffffffffff1673ffffffffffffffffffffffffffffffffffffffff16815260200190815260200160002081905550600060405180608001604052808681526020018581526020018481526020018373ffffffffffffffffffffffffffffffffffffffff1681525090806001815401808255809150506001900390600052602060002090600402016000909190919091506000820151816000015560208201518160010190816101b891906109f1565b5060408201518160020190816101ce91906109f1565b5060608201518160030160006101000a81548173ffffffffffffffffffffffffffffffffffffffff021916908373ffffffffffffffffffffffffffffffffffffffff160217905550505083600160008373ffffffffffffffffffffffffffffffffffffffff1673ffffffffffffffffffffffffffffffffffffffff1681526020019081526020016000208190555050505050565b60016020528060005260406000206000915090505481565b6000818154811061028a57600080fd5b90600052602060002090600402016000915090508060000154908060010180546102b390610814565b80601f01602080910402602001604051908101604052809291908181526020018280546102df90610814565b801561032c5780601f106103015761010080835404028352916020019161032c565b820191906000526020600020905b81548152906001019060200180831161030f57829003601f168201915b50505050509080600201805461034190610814565b80601f016020809104026020016040519081016040528092919081815260200182805461036d90610814565b80156103ba5780601f1061038f576101008083540402835291602001916103ba565b820191906000526020600020905b81548152906001019060200180831161039d57829003601f168201915b5050505050908060030160009054906101000a900473ffffffffffffffffffffffffffffffffffffffff16905084565b60006008905090565b6000604051905090565b600080fd5b600080fd5b6000819050919050565b61041a81610407565b811461042557600080fd5b50565b60008135905061043781610411565b92915050565b600080fd5b600080fd5b6000601f19601f8301169050919050565b7f4e487b7100000000000000000000000000000000000000000000000000000000600052604160045260246000fd5b61049082610447565b810181811067ffffffffffffffff821117156104af576104ae610458565b5b80604052505050565b60006104c26103f3565b90506104ce8282610487565b919050565b600067ffffffffffffffff8211156104ee576104ed610458565b5b6104f782610447565b9050602081019050919050565b82818337600083830152505050565b6000610526610521846104d3565b6104b8565b90508281526020810184848401111561054257610541610442565b5b61054d848285610504565b509392505050565b600082601f83011261056a5761056961043d565b5b813561057a848260208601610513565b91505092915050565b600073ffffffffffffffffffffffffffffffffffffffff82169050919050565b60006105ae82610583565b9050919050565b6105be816105a3565b81146105c957600080fd5b50565b6000813590506105db816105b5565b92915050565b600080600080608085870312156105fb576105fa6103fd565b5b600061060987828801610428565b945050602085013567ffffffffffffffff81111561062a57610629610402565b5b61063687828801610555565b935050604085013567ffffffffffffffff81111561065757610656610402565b5b61066387828801610555565b9250506060610674878288016105cc565b91505092959194509250565b600060208284031215610696576106956103fd565b5b60006106a4848285016105cc565b91505092915050565b6106b681610407565b82525050565b60006020820190506106d160008301846106ad565b92915050565b6000602082840312156106ed576106ec6103fd565b5b60006106fb84828501610428565b91505092915050565b600081519050919050565b600082825260208201905092915050565b60005b8381101561073e578082015181840152602081019050610723565b60008484015250505050565b600061075582610704565b61075f818561070f565b935061076f818560208601610720565b61077881610447565b840191505092915050565b61078c816105a3565b82525050565b60006080820190506107a760008301876106ad565b81810360208301526107b9818661074a565b905081810360408301526107cd818561074a565b90506107dc6060830184610783565b95945050505050565b7f4e487b7100000000000000000000000000000000000000000000000000000000600052602260045260246000fd5b6000600282049050600182168061082c57607f821691505b60208210810361083f5761083e6107e5565b5b50919050565b60008190508160005260206000209050919050565b60006020601f8301049050919050565b600082821b905092915050565b6000600883026108a77fffffffffffffffffffffffffffffffffffffffffffffffffffffffffffffffff8261086a565b6108b1868361086a565b95508019841693508086168417925050509392505050565b6000819050919050565b60006108ee6108e96108e484610407565b6108c9565b610407565b9050919050565b6000819050919050565b610908836108d3565b61091c610914826108f5565b848454610877565b825550505050565b600090565b610931610924565b61093c8184846108ff565b505050565b5b8181101561096057610955600082610929565b600181019050610942565b5050565b601f8211156109a55761097681610845565b61097f8461085a565b8101602085101561098e578190505b6109a261099a8561085a565b830182610941565b50505b505050565b600082821c905092915050565b60006109c8600019846008026109aa565b1980831691505092915050565b60006109e183836109b7565b9150826002028217905092915050565b6109fa82610704565b67ffffffffffffffff811115610a1357610a12610458565b5b610a1d8254610814565b610a28828285610964565b600060209050601f831160018114610a5b5760008415610a49578287015190505b610a5385826109d5565b865550610abb565b601f198416610a6986610845565b60005b82811015610a9157848901518255600182019150602085019450602081019050610a6c565b86831015610aae5784890151610aaa601f8916826109b7565b8355505b6001600288020188555050505b50505050505056fea26469706673582212204a8d7092b89fc2c204828b97b995835425d22ea87b56884e0919640ac048ffce64736f6c63430008120033",
  "devdoc": {
    "kind": "dev",
    "methods": {},
    "version": 1
  },
  "userdoc": {
    "kind": "user",
    "methods": {},
    "version": 1
  },
  "storageLayout": {
    "storage": [
      {
        "astId": 14,
        "contract": "contracts/LogFluency.sol:LogFluency",
        "label": "allStudents",
        "offset": 0,
        "slot": "0",
        "type": "t_array(t_struct(student)10_storage)dyn_storage"
      },
      {
        "astId": 18,
        "contract": "contracts/LogFluency.sol:LogFluency",
        "label": "idToFluency",
        "offset": 0,
        "slot": "1",
        "type": "t_mapping(t_address,t_uint256)"
      },
      {
        "astId": 22,
        "contract": "contracts/LogFluency.sol:LogFluency",
        "label": "idToIndex",
        "offset": 0,
        "slot": "2",
        "type": "t_mapping(t_address,t_uint256)"
      }
    ],
    "types": {
      "t_address": {
        "encoding": "inplace",
        "label": "address",
        "numberOfBytes": "20"
      },
      "t_array(t_struct(student)10_storage)dyn_storage": {
        "base": "t_struct(student)10_storage",
        "encoding": "dynamic_array",
        "label": "struct LogFluency.student[]",
        "numberOfBytes": "32"
      },
      "t_mapping(t_address,t_uint256)": {
        "encoding": "mapping",
        "key": "t_address",
        "label": "mapping(address => uint256)",
        "numberOfBytes": "32",
        "value": "t_uint256"
      },
      "t_string_storage": {
        "encoding": "bytes",
        "label": "string",
        "numberOfBytes": "32"
      },
      "t_struct(student)10_storage": {
        "encoding": "inplace",
        "label": "struct LogFluency.student",
        "members": [
          {
            "astId": 3,
            "contract": "contracts/LogFluency.sol:LogFluency",
            "label": "fluencyRate",
            "offset": 0,
            "slot": "0",
            "type": "t_uint256"
          },
          {
            "astId": 5,
            "contract": "contracts/LogFluency.sol:LogFluency",
            "label": "name",
            "offset": 0,
            "slot": "1",
            "type": "t_string_storage"
          },
          {
            "astId": 7,
            "contract": "contracts/LogFluency.sol:LogFluency",
            "label": "schoolIndex",
            "offset": 0,
            "slot": "2",
            "type": "t_string_storage"
          },
          {
            "astId": 9,
            "contract": "contracts/LogFluency.sol:LogFluency",
            "label": "wallet",
            "offset": 0,
            "slot": "3",
            "type": "t_address"
          }
        ],
        "numberOfBytes": "128"
      },
      "t_uint256": {
        "encoding": "inplace",
        "label": "uint256",
        "numberOfBytes": "32"
      }
    }
  }
}